:400000000080002011000000350200003502000080B500AF024B034A12681A6000F00EF9BC760040FA46004010B5054C237833B9044B13B10448AFF300800123237010BDA4
:400040003081FF1F000000001025000008B5064B1BB106480649AFF300800648036813B1054B03B1984708BD00000000102500003481FF1F0881FF1F0000000080B582B0A8
:4000800000AF00F0C1FF01F0C7F801F089F901F049FA01F039F801F043FC01F0DFFA02F005F902F071F9002002F09AF9002001F04FFC192000F0E6FE01F0A4FB002001F073
:4000C000B1FB01F0CFFB0346FB80012001F040FC192000F0D7FE01F095FB002001F0A2FB01F0C0FB0346BB8001F0ACFA0346FB70FB78082B29D0082B06DC022B17D0042BE8
:400100001CD0012B0CD043E0202B2CD0202B02DC102B21D03CE0402B2CD0802B31D037E0002001F07FFA002001F006F833E0012001F078FA002000F0FFFF2CE0012001F06A
:4001400071FA012000F0F8FF25E0022001F06AFA012000F0F1FF1EE0022001F063FA022000F0EAFF17E0042001F05CFA022000F0E3FF10E0042001F055FA032000F0DCFF8E
:4001800009E0082001F04EFA032000F0D5FF02E000F0ECFF00BFB7F9062013469B0013449B00002B01DA03F2FF339B12FB80B7F9042013465B001344002B01DA03F2FF3375
:4001C0009B12BB80B7F90630012B16DDB7F9062013469B001344184600F054FE012002F07DF8B7F9062013469B001344184600F049FE002002F072F802E0002002F06EF83D
:40020000B7F90430012B07D0022B09D0002B0BD1002002F0E5F80BE0012002F0E1F807E0022002F0DDF803E0002002F0D9F800BF3CE700BF80B400AFFEE700BF80B586B0DB
:4002400000AF224B7B61224B3B61204B7B6135E03B691B68FB603B695B68BB603B699B683B6000237B600CE0FB681A68BB681A60BB680433BB60FB680433FB607B680433EB
:400280007B607A683B689A42EED13B69DB683B6000237B6008E0BB6800221A60BB680433BB607B6804337B607A683B689A42F2D13B6910333B617B69013B7B617B69002B00
:4002C000C6D102F0EDF8FFF7D9FEFEE7010000003C30000080B582B000AF184B184A1A60184B184A126842F400721A6000237B600FE07B68032B04D8134B7A6853F8223004
:4003000000E0124B124A796842F821307B6801337B607B682F2BECD90E4B1B78DAB20E4B1A700E4B0A4A1A6000F0D6FA00F0C4FB0B4B00221A600837BD4680BD0CED00E089
:400340000004FA0514ED00E000000000350200000080FF1FBC7600400481FF1F08ED00E00081FF1F80B582B000AF78603960786800213A6802F0C3F80837BD4680BD00BF26
:4003800080B584B000AFF860B9607A60F868B9687A6802F0ABF81037BD4680BD80B483B000AF0346FB71FEE780B487B000AF7860396000233B6100237B6126E07B699B00DD
:4003C0007A6813441B68BB60BB68FB73BB6823F0FF03BB6013E03B695B003A6813441B781A46BB6813443A69520039680A4452781A703B6901333B61FB7B013BFB73FB7BA8
:40040000002BE8D17B6901337B617B691B2BD5D91C37BD465DF8047B704700BF80B582B000AF3F4B00221A803E4B58221A703E4B01221A803D4B18221A703D4BEF221A80BE
:400440003C4B18221A703C4BEF221A803B4B18221A703B4BEF221A803A4B18221A703A4BEF221A80394B18221A70394B02221A704FF0402308221A70364B03221A70364B8A
:40048000364A1278D2B21A70354B08221A80354B41F251221A800023FB7019237B6014E0FB785B00DAB2304B1B78DBB203F00103DBB21343DBB203F00303FB704FF4F07024
:4004C00000F0E6FA7B68013B7B607B68002B02D0FB78032BE4D17B68002B02D10320FFF75DFF224B4FF480721A80204B07221A701F4B00221A701F4B48221A701B4B002250
:400500001A701D4B02221A701C4B1C4A1278D2B242F03F02D2B21A700837BD4680BD00BF80400040824000408440004086400040884000408A4000408C4000408E40004049
:40054000904000409240004094400040964000400043004000420040A14600400801004922420040204200402542004004400040064000400840004001400040A24300408C
:4005800080B483B000AF204B1B78FB711F4B1B78BB711F4B1B787B711E4BFA7902F00702D2B21A701C4BFA791209D2B21A70174BBA7942F00302D2B21A70154B7A7942F062
:4005C0000302D2B21A70154B02221A70144B20221A70144B80221A70134B20221A70134B12221A70124B20221A70094B7A791A70064BBA791A700F4B44221A700C37BD4646
:400600005DF8047B704700BFCF010049F8460040F94600406E5800406F5800404D510040FD51004009590040085A0040005B00402B5B00407658004080B483B000AF0346CF
:40064000FB71FB79032B24D8FA79FB791344FB71FA79124B53F82230F979104A52F821201178FA790E48825C0A43D2B21A70FB790133FB71FA79094B53F82230F979074A3C
:4006800052F821201178FA790548825C0A43D2B21A700C37BD465DF8047B7047142500003425000080B483B000AF0346FB71FB79032B28D8FA79FB791344FB71FA79144BE1
:4006C00053F82230F979124A52F821201178FA791048825CD243D2B20A40D2B21A70FB790133FB71FA790A4B53F82230F979084A52F821201178FA790648825CD243D2B258
:400700000A40D2B21A700C37BD465DF8047B7047142500003425000080B483B000AF0346FB71FB79012B24D8FA79FB791344FB71FA79124B53F82230F979104A52F8212029
:400740001178FA790E48825C0A43D2B21A70FB790133FB71FA79094B53F82230F979074A52F821201178FA790548825C0A43D2B21A700C37BD465DF8047B70473C25000074
:400780004C25000080B483B000AF0346FB71FB79012B28D8FA79FB791344FB71FA79144B53F82230F979124A52F821201178FA791048825CD243D2B20A40D2B21A70FB7954
:4007C0000133FB71FA790A4B53F82230F979084A52F821201178FA790648825CD243D2B20A40D2B21A700C37BD465DF8047B70473C2500004C25000080B483B000AF03468A
:40080000FB71FB79012B24D8FA79FB791344FB71FA79124B53F82230F979104A52F821201178FA790E48825C0A43D2B21A70FB790133FB71FA79094B53F82230F979074A7C
:4008400052F821201178FA790548825C0A43D2B21A700C37BD465DF8047B7047502500006025000080B483B000AF0346FB71FB79012B28D8FA79FB791344FB71FA79144BB9
:4008800053F82230F979124A52F821201178FA791048825CD243D2B20A40D2B21A70FB790133FB71FA790A4B53F82230F979084A52F821201178FA790648825CD243D2B296
:4008C0000A40D2B21A700C37BD465DF8047B7047502500006025000080B582B000AF72B64E4B4E4A1278D2B242F00402D2B21A700023FB7113E0FA7913465B0013445B00B7
:40090000474A13443B603B681A683B689B889BB210461946FFF726FDFB790133FB71FB79072BE8D94FF090403E49FFF73DFD3E480421FFF717FD3D480421FFF713FD3C4804
:400940000421FFF70FFD3B480421FFF70BFD3A480421FFF707FD39480421FFF703FD38480421FFF7FFFC37480421FFF7FBFC364B354A1278D2B242F00202D2B21A70334B76
:40098000324A1278D2B242F00202D2B21A70304B2F4A1278D2B242F04002D2B21A702D4B2C4A1278D2B242F01002D2B21A702A482A490822FFF7E4FC29482A490822FFF7AE
:4009C000DFFC294829490822FFF7DAFC284829490822FFF7D5FC284828490822FFF7D0FC274B274A1278D2B242F00802D2B21A70244B61221A70FFF711FD224B81221A704E
:400A0000214B01221A70FFF7BBFD204810490E22FFF7B6FC0837BD4680BD00BFE84600406425000070000048007600400876004010760040187600402076004028760040AD
:400A400030760040387600400350014013500140A0430040C24300400251004094020048F25100409C02004832510040A402004842510040AC02004852510040B4020048CD
:400A8000224300400048004004000840B04300400230800800F0058000BF013800467FF4FCAF7047EFF3108072B6704780F31088704700BFAFF3008080B483B000AF134BE0
:400AC0007F221A70124B80221A707F23FB710CE0FB79DB0003F1804303F5F043FA79013AD2B21A70FB79013BFB71FB79002BEFD1FB79DB0003F1804303F5F04300221A7003
:400B00000C37BD465DF8047B704700BF0D81FF1F0C81FF1F80B485B000AF02460B46FA71BB710123FB60FB79172B2FD8BB79002B0ED0FB791A01194B1344FA791101174ADD
:400B40000A441278D2B242F02002D2B21A700DE0FB791A01114B1344FA7911010F4A0A441278D2B222F02002D2B21A70FB791A010A4B1344FA791101084A0A441278D2B29E
:400B800042F00102D2B21A700023FB60FB6818461437BD465DF8047B704700BF1070004080B485B000AF02460B46FA71BB710123FB60FB79172B18D8FB791A010E4B1344AF
:400BC0001B78DBB223F00E03FB72FB791A010A4B1344BA7902F00702D2B25200D1B2FA7A0A43D2B21A700023FB60FB6818461437BD465DF8047B70471070004080B485B072
:400C000000AF13460246FA710A46BA807B800123FB60BA8841F6FF739A4202D14FF40053BB807A8841F6FF739A4202D14FF400537B80FB79172B17D8FB79DB0003F18043F4
:400C400003F5EC430433BB60BB68BA881A80FB79DB0003F1804303F5EC430633BB60BB687A881A800023FB60FB6818461437BD465DF8047B704700BF80B485B000AF024685
:400C80000B46FA71BB710123FB60FB79172B07D8FB791A01064B1344BA795A720023FB60FB6818461437BD465DF8047B704700BF1070004080B485B000AFF871B9717A71D5
:400CC0003B710123FB60FB79172B34D8FB79DB0003F1804303F5EC43BA7902F07F02D1B27A79D201D2B20A43D2B21A70FB79DB0003F1804303F5EC433A7E1201D1B23A79DE
:400D000002F00F02D2B20A43D2B25A70FB79DB0003F1804303F5EC433A7F02F00F02D2B29A70FB79DB0003F1804303F5EC430022DA700023FB60FB6818461437BD465DF89F
:400D4000047B704780B582B000AFFF23FB71FFF7A9FE0346BB71104B1B78182B12D90F4B1B78FB710C4B1B78013BDAB20A4B1A70FB79DB0003F1804303F5F0431B78DAB231
:400D8000064B1A70BB791846FFF790FEFB7918460837BD4680BD00BF0C81FF1F0D81FF1F80B485B000AFF871B980BA71FB700123FB60FB795BB2002B23DBBB8823F47F6326
:400DC00023F00F039BB2002B1BD1FB79DB0003F1804303F5F043BB60BB68BA881A80FB79DB0003F1804303F5F043BA799A70FB79DB0003F1804303F5F043FA78DA700023A1
:400E0000FB60FB6818461437BD465DF8047B704780B485B000AF13460246FA710A46BA807B800123FB60FB795BB2002B17DBFB79DB0003F1804303F5F0430433BB60BB6851
:400E4000BA881A80FB79DB0003F1804303F5F0430633BB60BB687A881A800023FB60FB6818461437BD465DF8047B704780B483B000AF0346FB7101BE0C37BD465DF8047B96
:400E8000704700BF80B582B000AF786008E00C4B1B681846FFF7FCFD7B68A3F500437B607B68B3F5004FF2D8064B1B687A6802FB03F31846FFF7ECFD0837BD4680BD00BF5E
:400EC0002081FF1F1881FF1F80B582B000AF0346FB80FB88044A127802FB03F31846FFF7D7FD0837BD4680BD1C81FF1F80B584B000AF03463960FB710F4B1B68FB60FB79E0
:400F00001F2B02D90020FFF7B1FFFB7903F01F0310339B00FA6813441B68BB60FB7903F01F0310339B00FA6813443A681A60BB6818461037BD4680BD08ED00E080B582B088
:400F400000AF02460B46FA71BB71BB79072B02D90020FFF78BFFFB791F2B02D90020FFF785FFFB7903F01F0303F1604303F56443BA795201D2B21A700837BD4680BD00BFED
:400F800080B500AF00F072FD022000F0A7FD002000F0C4FDFFF7D6FE03461A46094B1A70FFF7D0FE03461A46074B1A7007484FF4E37100F039F8064840F2951100F06CF84C
:400FC00080BD00BF4F81FF1F5081FF1F942500005C27000080B500AF00F066FD084B1B7818460121FFF796FD064B1B7818460121FFF790FD002000F0B1FD00F0BDFC80BD2B
:401000004D81FF1F4E81FF1F80B500AF054B1B78002B04D1FFF7B4FF024B01221A70FFF7D9FF80BD4C81FF1F80B582B000AF78600B467B807B681B0C9BB2012001211A4643
:401040004FF4804300F0B2FC03461A46104B1A70104B19780F4B1B787A88084611461A460123FFF79DFE0B4B1A787B689BB21046194645F68332FFF7CBFE054B1A78054BFB
:401080001B7810461946FFF7F7FD0837BD4680BD4D81FF1F4F81FF1F80B582B000AF78600B467B807B681B0C9BB2012001211A464FF4804300F0AAFC03461A46104B1A7047
:4010C000104B19780F4B1B787A88084611461A460123FFF765FE0B4B1A787B689BB21046194645F68332FFF793FE054B1A78054B1B7810461946FFF7BFFD0837BD4680BDA4
:401100004E81FF1F5081FF1F80B582B000AF0023FB7106E0FB791846FFF7C4FAFB790133FB71FB79032BF5D9024BFF221A700837BD4680BD2481FF1F80B582B000AF0346A5
:40114000FB71094B1B78FF2B04D0074B1B781846FFF7A8FAFB791846FFF76EFA024BFA791A700837BD4680BD2481FF1F80B500AF064B1B78FF2B07D0044B1B781846FFF788
:4011800091FA024BFF221A7080BD00BF2481FF1F80B500AF00F08AFD022000F0BFFD002000F0DCFDFFF7CEFD03461A46094B1A70FFF7C8FD03461A46074B1A7007484FF4C1
:4011C000BF7100F039F8064840F2551100F06CF880BD00BF5481FF1F5581FF1FF4280000742A000080B500AF00F07EFD084B1B7818460121FFF78EFC064B1B78184601212E
:40120000FFF788FC002000F0C9FD00F0D5FC80BD5281FF1F5381FF1F80B500AF054B1B78002B04D1FFF7B4FF024B01221A70FFF7D9FF80BD5181FF1F80B582B000AF78602A
:401240000B467B807B681B0C9BB2012001211A464FF4804300F0CAFC03461A46104B1A70104B19780F4B1B787A88084611461A460123FFF795FD0B4B1A787B689BB21046E4
:40128000194645F68132FFF7C3FD054B1A78054B1B7810461946FFF7EFFC0837BD4680BD5281FF1F5481FF1F80B582B000AF78600B467B807B681B0C9BB2012001211A4639
:4012C0004FF4804300F0C2FC03461A46104B1A70104B19780F4B1B787A88084611461A460123FFF75DFD0B4B1A787B689BB21046194645F68132FFF78BFD054B1A78054BED
:401300001B7810461946FFF7B7FC0837BD4680BD5381FF1F5581FF1F80B500AF00F0E6FD022000F01BFE002000F038FEFFF70AFD03461A46094B1A70FFF704FD03461A460B
:40134000074B1A70074840F22F1100F039F806484FF48F7100F06CF880BD00BF5981FF1F5A81FF1FCC2B0000FC2C000080B500AF00F0DAFD084B1B7818460121FFF7CAFBF2
:40138000064B1B7818460121FFF7C4FB002000F025FE00F031FD80BD5781FF1F5881FF1F80B500AF054B1B78002B04D1FFF7B4FF024B01221A70FFF7D9FF80BD5681FF1F2F
:4013C00080B582B000AF78600B467B807B681B0C9BB2012001211A464FF4804300F026FD03461A46104B1A70104B19780F4B1B787A88084611461A460123FFF7D1FC0B4BF5
:401400001A787B689BB2104619464FF4B742FFF7FFFC054B1A78054B1B7810461946FFF72BFC0837BD4680BD5781FF1F5981FF1F80B582B000AF78600B467B807B681B0CC0
:401440009BB2012001211A464FF4804300F01EFD03461A46104B1A70104B19780F4B1B787A88084611461A460123FFF799FC0B4B1A787B689BB2104619464FF4B742FFF74F
:40148000C7FC054B1A78054B1B7810461946FFF7F3FB0837BD4680BD5881FF1F5A81FF1F80B500AF00F042FE022000F077FE002000F094FEFFF746FC03461A46084B1A70A1
:4014C000FFF740FC03461A46064B1A700648FF2100F038F80548E32100F06CF880BD00BF5E81FF1F5F81FF1F1C2E00001C2F000080B500AF00F038FE084B1B781846012107
:40150000FFF708FB064B1B7818460121FFF702FB002000F083FE00F08FFD80BD5C81FF1F5D81FF1F80B500AF054B1B78002B04D1FFF7B6FF024B01221A70FFF7D9FF80BDA3
:401540005B81FF1F80B582B000AF78600B467B807B681B0C9BB2012001211A464FF4804300F084FD03461A46104B1A70104B19780F4B1B787A88084611461A460123FFF73E
:401580000FFC0B4B1A787B689BB21046194645F68232FFF73DFC054B1A78054B1B7810461946FFF769FB0837BD4680BD5C81FF1F5E81FF1F80B582B000AF78600B467B80B0
:4015C0007B681B0C9BB2012001211A464FF4804300F07CFD03461A46104B1A70104B19780F4B1B787A88084611461A460123FFF7D7FB0B4B1A787B689BB21046194645F620
:401600008232FFF705FC054B1A78054B1B7810461946FFF731FB0837BD4680BD5D81FF1F5F81FF1F80B483B000AF0346FB71044BFA791A700C37BD465DF8047B704700BF43
:401640007A64004080B400AF034B1B78DBB21846BD465DF8047B70476A64004080B500AF054B1B78002B04D100F008F8024B01221A7000F025F880BD6081FF1F80B500AF23
:40168000102000F0F9FD00200721FFF757FC00200849FFF72BFC084B074A1278D2B242F00602D2B21A700C2000F084F8034B00221A8080BD15190000095900406C81FF1F41
:4016C00080B582B000AFFFF7EDF90346FB712E4B2D4A1278D2B242F00202D2B21A702B4B2A4A1278D2B242F00202D2B21A70284B274A1278D2B242F00202D2B21A70254B1F
:40170000244A1278D2B242F00202D2B21A70224B1B78BB71BB7943F00203BB71BB7943F00103BB711C4BBA791A701C4B04221A701B4B1B4A1278D2B222F04002D2B21A7018
:40174000174B174A1278D2B242F00302D2B21A70144B08221A70144B02221A70134B134A1278D2B242F00802D2B21A700A20FFF7ABFB0F4B01221A60FB791846FFF796F90C
:401780000837BD4680BD00BFAB430040BB430040A2430040B24300400B5900400E5900400D59004008590040164600402F5B004080E200E080B584B000AF0346FB71FB79AA
:4017C0000A2B07D00C2B02D0082B06D008E0C423FB730BE08423FB7308E04423FB7305E0C423FB730020FFF741FB00BF044BFA7B1A70FB79184600F04FF81037BD4680BDA8
:401800000A59004080B400AF054B054A1278D2B242F00102D2B21A70BD465DF8047B70470859004080B584B000AF0346FB710C4B1B78DBB203F00103FB73FB7B012B02D0E6
:40184000FB79002BF3D0FB7B012B04D10120FFF73BFB034B1B78FB7B18461037BD4680BD0959004080B483B000AF094B1B88FB80084B1B889BB29BB2FA88D31A9BB29BB243
:401880001BB218460C37BD465DF8047B704700BFA25B00406881FF1F80B584B000AF0346FB71FB790A2B08D00C2B02D0082B08D00BE04FF48053FB600DE04FF48063FB60FD
:4018C00009E04FF48073FB6005E00023FB600020FFF7CCFA00BF0C4B00221A80FB6842F2107202FB03F303F58063002B01DA03F2FF73DB121A46054B1A60054B00221A80E6
:401900001037BD4680BD00BF6A81FF1F6481FF1F6881FF1F80B400AFBD465DF8047B704780B582B000AF0023FB7106E0FB791846FEF728FFFB790133FB71FB79012BF5D9E2
:40194000024BFF221A700837BD4680BD2581FF1F80B582B000AF0346FB71FFF7E1FFFB791846FEF7D9FE034BFA791A700837BD4680BD00BF2581FF1F80B400AF094B094A16
:401980001278D2B242F00802D2B21A70064B064A1278D2B242F00802D2B21A70BD465DF8047B7047A2430040B243004080B584B002AFF871B971BA807B80134B00221A7002
:4019C000114B1978FA79BB790020009000200190084611461A460023FFF76CF90A4B1978BA887B88084611461A46FFF707F9064B1B7818460221FFF7D3F8034B1B781846E4
:401A00000837BD4680BD00BF2681FF1F80B584B002AFF871B971BA807B80134B01221A70114B1978FA79BB790020009000200190084611461A460023FFF73CF90A4B197888
:401A4000BA887B88084611461A46FFF7D7F8064B1B7818460221FFF7A3F8034B1B7818460837BD4680BD00BF2781FF1F80B500AF0A4B00221A700A4B00221A70094B094A91
:401A80001278D2B242F00802D2B21A70002000F045F8022000F022F880BD00BF2C5800402D5800409F5A004080B400AF094B094A1278D2B242F00802D2B21A70064B064A14
:401AC0001278D2B242F00802D2B21A70BD465DF8047B7047A8430040B843004080B483B000AF0346FB710C4B0B4A1278D2B222F00202D2B21A70084B074A1278D1B2FA79CD
:401B000002F00202D2B20A43D2B21A700C37BD465DF8047B704700BF2C58004080B582B000AF0346FB710C4B0B4A1278D2B222F00C02D2B21A70084B074A1278D1B2FA79A5
:401B400002F00C02D2B20A43D2B21A7000F016F80837BD4680BD00BF2C58004080B483B000AF0346FB71044BFA791A700C37BD465DF8047B704700BF835B004080B483B05A
:401B800000AF0B4B1B78DBB203F00C039B08DBB20633FB71074AFB7903F1924303F59C731B78DBB213700C37BD465DF8047B70472C5800400B46004080B400AF094B094A41
:401BC0001278D2B242F01002D2B21A70064B064A1278D2B242F01002D2B21A70BD465DF8047B7047A2430040B243004080B584B002AFF871B971BA807B80134B02221A70AE
:401C0000114B1978FA79BB790020009000200190084611461A460023FFF74CF80A4B1978BA887B88084611461A46FEF7E7FF064B1B7818460221FEF7B3FF034B1B781846F7
:401C40000837BD4680BD00BF2881FF1F80B584B002AFF871B971BA807B80134B03221A70114B1978FA79BB790020009000200190084611461A460023FFF71CF80A4B197863
:401C8000BA887B88084611461A46FEF7B7FF064B1B7818460221FEF783FF034B1B7818460837BD4680BD00BF2981FF1F80B500AF0A4B00221A700A4B00221A70094B094A81
:401CC0001278D2B242F00802D2B21A70002000F045F8022000F022F880BD00BF24580040255800408F5A004080B400AF094B094A1278D2B242F00202D2B21A70064B064AF8
:401D00001278D2B242F00202D2B21A70BD465DF8047B7047A8430040B843004080B483B000AF0346FB710C4B0B4A1278D2B222F00202D2B21A70084B074A1278D1B2FA7990
:401D400002F00202D2B20A43D2B21A700C37BD465DF8047B704700BF2458004080B582B000AF0346FB710C4B0B4A1278D2B222F00C02D2B21A70084B074A1278D1B2FA796B
:401D800002F00C02D2B20A43D2B21A7000F016F80837BD4680BD00BF2458004080B483B000AF0346FB71044BFA791A700C37BD465DF8047B704700BF815B004080B483B022
:401DC00000AF0B4B1B78DBB203F00C039B08DBB20633FB71074AFB7903F1924303F598731B78DBB213700C37BD465DF8047B7047245800400946004080B400AF094B094A0D
:401E00001278D2B242F00402D2B21A70064B064A1278D2B242F00402D2B21A70BD465DF8047B7047A2430040B243004080B584B002AFF871B971BA807B80134B04221A7081
:401E4000114B1978FA79BB790020009000200190084611461A460023FEF72CFF0A4B1978BA887B88084611461A46FEF7C7FE064B1B7818460221FEF793FE034B1B78184611
:401E80000837BD4680BD00BF2A81FF1F80B584B002AFF871B971BA807B80134B05221A70114B1978FA79BB790020009000200190084611461A460023FEF7FCFE0A4B197838
:401EC000BA887B88084611461A46FEF797FE064B1B7818460221FEF763FE034B1B7818460837BD4680BD00BF2B81FF1F80B500AF0A4B00221A700A4B00221A70094B094A7F
:401F00001278D2B242F00802D2B21A70002000F045F8022000F022F880BD00BF2058004021580040875A004080B400AF094B094A1278D2B242F00102D2B21A70064B064AC6
:401F40001278D2B242F00102D2B21A70BD465DF8047B7047A8430040B843004080B483B000AF0346FB710C4B0B4A1278D2B222F00202D2B21A70084B074A1278D1B2FA794F
:401F800002F00202D2B20A43D2B21A700C37BD465DF8047B704700BF2058004080B582B000AF0346FB710C4B0B4A1278D2B222F00C02D2B21A70084B074A1278D1B2FA792D
:401FC00002F00C02D2B20A43D2B21A7000F016F80837BD4680BD00BF2058004080B483B000AF0346FB71044BFA791A700C37BD465DF8047B704700BF805B004080B483B0E5
:4020000000AF0B4B1B78DBB203F00C039B08DBB20633FB71074AFB7903F1924303F590731B78DBB213700C37BD465DF8047B7047205800400846004080B400AF094B094AD7
:402040001278D2B242F02002D2B21A70064B064A1278D2B242F02002D2B21A70BD465DF8047B7047A2430040B243004080B584B002AFF871B971BA807B80134B06221A7005
:40208000114B1978FA79BB790020009000200190084611461A460023FEF70CFE0A4B1978BA887B88084611461A46FEF7A7FD064B1B7818460221FEF773FD034B1B78184632
:4020C0000837BD4680BD00BF2C81FF1F80B584B002AFF871B971BA807B80134B07221A70114B1978FA79BB790020009000200190084611461A460023FEF7DCFD0A4B197813
:40210000BA887B88084611461A46FEF777FD064B1B7818460221FEF743FD034B1B7818460837BD4680BD00BF2D81FF1F80B500AF0A4B00221A700A4B00221A70094B094A7C
:402140001278D2B242F00802D2B21A70002000F045F8022000F022F880BD00BF2858004029580040975A004080B400AF094B094A1278D2B242F00402D2B21A70064B064A61
:402180001278D2B242F00402D2B21A70BD465DF8047B7047A8430040B843004080B483B000AF0346FB710C4B0B4A1278D2B222F00202D2B21A70084B074A1278D1B2FA790A
:4021C00002F00202D2B20A43D2B21A700C37BD465DF8047B704700BF2858004080B582B000AF0346FB710C4B0B4A1278D2B222F00C02D2B21A70084B074A1278D1B2FA79E3
:4022000002F00C02D2B20A43D2B21A7000F016F80837BD4680BD00BF2858004080B483B000AF0346FB71044BFA791A700C37BD465DF8047B704700BF825B004080B483B098
:4022400000AF0B4B1B78DBB203F00C039B08DBB20633FB71074AFB7903F1924303F594731B78DBB213700C37BD465DF8047B7047285800400A46004080B483B000AF0346B2
:40228000FB71094B084A1278D2B2D1B2FA7922F00702D2B20A43D2B2D2B21A700C37BD465DF8047B704700BF8640004080B582B000AF0023FB7106E0FB791846FEF7D2FAD6
:4022C000FB790133FB71FB79012BF5D9024BFF221A700837BD4680BD2E81FF1F80B582B000AF0346FB71FFF7E1FFFB791846FEF783FA034BFA791A700837BD4680BD00BFAA
:402300002E81FF1F80B500AF0A4B0C221A700A4B094A1278D2B242F02002D2B21A70074B80221A70002000F05BF8012000F03CF880BD00BF005800400158004002580040DA
:4023400080B400AF0D4B0D4A1278D2B242F00102D2B21A700A4B0A4A1278D2B242F00102D2B21A70074B074A1278D2B262F07F02D2B21A70BD465DF8047B7047A943004034
:40238000B94300407758004080B500AF054B1B78002B04D1FFF7B6FF024B01221A70FFF7CFFF80BD6181FF1F80B485B000AF0346FB710A4B1B78DBB223F00303FB73FB7928
:4023C00003F00303DAB2FB7B1343FB73034BFA7B1A701437BD465DF8047B70470158004080B489B000AF0346FB71294A07F114031068516803C3127A1A70264A07F108038C
:402400001068516803C3127A1A70FB79082B39D8214B214A1278D2B222F07F02D2B21A701D4B1D4A1278D1B2FA7907F12000024412F80C0CFA7907F1200C624412F8182CF7
:402440009200D2B202F00C02D2B20243D2B20A43D2B21A70114B114A1278D2B222F00C02D2B21A700D4B0D4A1278D1B2FA7907F12000024412F8182C0A43D2B242F00C02BF
:40248000D2B21A702437BD465DF8047B704700BF003000000C300000025800400158004070B50E4B0E4D0024ED1AAD101E46AC4204D056F8242090470134F8E700F0ACFDCA
:4024C000084D094B0024ED1AAD101E46AC4204D056F8242090470134F8E770BD24300000243000002C3000002430000010B50023934203D0CC5CC4540133F9E710BD02442C
:402500000346934202D003F8011BFAE77047000000000000985A0040585B0040885A0040585B0040805A004024430040905A00402443004010100202020010003D5100402C
:40254000285B00403D510040285B004040408080FD510040005A0040244300402443004010010000105100402000605100401000C051004010000000014000100014014037
:40258000000800400140000A004C014000020050014020008081838586888A8C8D8F9192949698999B9D9EA0A2A3A5A7A8AAACADAFB0B2B3B5B7B8BABBBDBEC0C1C3C4C629
:4025C000C7C8CACBCDCECFD1D2D3D4D6D7D8D9DBDCDDDEDFE0E1E2E3E5E6E7E7E8E9EAEBECEDEEEFEFF0F1F2F2F3F4F4F5F5F6F6F7F8F8F8F9F9FAFAFAFBFBFBFBFCFCFCD5
:40260000FCFCFCFCFCFCFCFCFCFCFCFCFCFCFCFBFBFBFBFAFAFAF9F9F8F8F8F7F6F6F5F5F4F4F3F2F2F1F0EFEFEEEDECEBEAE9E8E7E7E6E5E3E2E1E0DFDEDDDCDBD9D8D772
:40264000D6D4D3D2D1CFCECDCBCAC8C7C6C4C3C1C0BEBDBBBAB8B7B5B3B2B0AFADACAAA8A7A5A3A2A09E9D9B9998969492918F8D8C8A8886858381807E7C7A7977757372CF
:40268000706E6D6B6967666462615F5D5C5A5857555352504F4D4C4A4847454442413F3E3C3B39383735343231302E2D2C2B2928272624232221201F1E1D1C1A191818174D
:4026C00016151413121110100F0E0D0D0C0B0B0A0A0909080707070606050505040404040303030303030303030303030303030303030404040405050506060707070809F7
:40270000090A0A0B0B0C0D0D0E0F1010111213141516171818191A1C1D1E1F2021222324262728292B2C2D2E30313234353738393B3C3E3F4142444547484A4C4D4F50529D
:40274000535557585A5C5D5F6162646667696B6D6E7072737577797A7C7E00008081838587898B8D8F91939597999A9C9EA0A2A4A6A8A9ABADAFB1B2B4B6B8B9BBBDBEC02A
:40278000C2C3C5C7C8CACBCDCED0D1D3D4D6D7D8DADBDCDEDFE0E1E3E4E5E6E7E8E9EAEBECEDEEEFF0F1F1F2F3F4F4F5F6F6F7F8F8F9F9F9FAFAFBFBFBFBFCFCFCFCFCFC45
:4027C000FCFCFCFCFCFCFCFCFCFCFBFBFBFAFAFAF9F9F8F8F7F7F6F5F5F4F3F3F2F1F0EFEFEEEDECEBEAE9E8E7E5E4E3E2E1E0DEDDDCDAD9D8D6D5D4D2D1CFCECCCBC9C73C
:40280000C6C4C3C1BFBEBCBAB8B7B5B3B1B0AEACAAA8A7A5A3A19F9D9B9998969492908E8C8A88868482807F7D7B79777573716F6D6B6967666462605E5C5A585755535178
:402840004F4E4C4A4847454341403E3C3B393836343331302E2D2B2A292726252322211F1E1D1C1B1A181716151413121110100F0E0D0C0C0B0A0A090808070706060505AB
:40288000050404040303030303030303030303030303030304040404050506060607070809090A0B0B0C0D0E0E0F101112131415161718191A1B1C1E1F20212324252728C8
:4028C000292B2C2E2F3132343537383A3C3D3F4142444647494B4D4E5052545657595B5D5F61636566686A6C6E70727476787A7C7E00000080828486888A8C8E90929496C1
:40290000989A9C9EA0A2A4A6A8AAACAEB0B1B3B5B7B9BBBDBEC0C2C4C5C7C9CACCCECFD1D2D4D5D7D8DADBDCDEDFE0E2E3E4E5E7E8E9EAEBECEDEEEFF0F1F2F2F3F4F5F526
:40294000F6F7F7F8F8F9F9FAFAFBFBFBFCFCFCFCFCFCFCFCFCFCFCFCFCFCFCFCFBFBFBFAFAF9F9F8F8F7F7F6F5F5F4F3F2F2F1F0EFEEEDECEBEAE9E8E7E5E4E3E2E0DFDE3D
:40298000DCDBDAD8D7D5D4D2D1CFCECCCAC9C7C5C4C2C0BEBDBBB9B7B5B3B1B0AEACAAA8A6A4A2A09E9C9A98969492908E8C8A88868482807D7B79777573716F6D6B6967CE
:4029C0006563615F5D5B59575553514F4E4C4A48464442413F3D3B3A3836353331302E2D2B2A282725242321201F1D1C1B1A1817161514131211100F0E0D0D0C0B0A0A09E6
:402A00000808070706060505040404030303030303030303030303030303030404040505060607070808090A0A0B0C0D0D0E0F1011121314151617181A1B1C1D1F202123D6
:402A4000242527282A2B2D2E3031333536383A3B3D3F41424446484A4C4E4F51535557595B5D5F61636567696B6D6F71737577797B7D000080828486898B8D90929496998B
:402A80009B9D9FA2A4A6A8AAADAFB1B3B5B7B9BBBDBFC1C3C5C7C9CBCCCED0D2D4D5D7D8DADCDDDFE0E2E3E4E6E7E8EAEBECEDEEEFF0F1F2F3F4F5F5F6F7F8F8F9F9FAFA0B
:402AC000FBFBFBFCFCFCFCFCFCFCFCFCFCFCFCFCFCFBFBFAFAFAF9F9F8F7F7F6F5F4F3F3F2F1F0EFEEEDEBEAE9E8E6E5E4E2E1DFDEDCDBD9D8D6D4D3D1CFCDCCCAC8C6C4F0
:402B0000C2C0BEBCBAB8B6B4B2B0AEABA9A7A5A3A19E9C9A989593918E8C8A888583817E7C7A777573716E6C6A676563615E5C5A585654514F4D4B49474543413F3D3B3940
:402B400037353332302E2C2B292726242321201E1D1B1A19171615141211100F0E0D0C0C0B0A090808070606050505040403030303030303030303030303030404040505E5
:402B80000606070708090A0A0B0C0D0E0F1011121314151718191B1C1D1F2022232527282A2B2D2F31333436383A3C3E40424446484A4C4E50525557595B5D60626466699B
:402BC0006B6D6F727476797B7D000000808285878A8C8F929497999C9EA1A3A6A8ABADAFB2B4B7B9BBBDC0C2C4C6C8CACCCFD1D2D4D6D8DADCDDDFE1E2E4E5E7E8EAEBECAB
:402C0000EEEFF0F1F2F3F4F5F6F7F7F8F9F9FAFAFBFBFCFCFCFCFCFCFCFCFCFCFCFCFBFBFBFAFAF9F8F8F7F6F5F5F4F3F2F1EFEEEDECEAE9E8E6E5E3E2E0DEDDDBD9D7D515
:402C4000D3D1D0CECBC9C7C5C3C1BFBCBAB8B5B3B1AEACA9A7A5A2A09D9B989593908E8B898683817E7C797674716F6C6A6764625F5D5A585653514E4C4A474543403E3C0E
:402C80003A383634312F2E2C2A28262422211F1D1C1A19171615131211100E0D0C0B0A0A0908070706050504040403030303030303030303030304040505060607080809A9
:402CC0000A0B0C0D0E0F101113141517181A1B1D1E2022232527292B2D2E30333537393B3D3F424446484B4D50525457595C5E616366686B6D707375787A7D008082858822
:402D00008A8D909395989B9DA0A3A5A8ABADB0B2B5B7BABCBEC1C3C5C8CACCCED0D2D4D6D8DADCDEE0E1E3E5E6E8E9EBECEEEFF0F1F2F3F4F5F6F7F8F9F9FAFAFBFBFCFC81
:402D4000FCFCFCFCFCFCFCFCFCFCFBFBFAFAF9F9F8F7F6F5F4F3F2F1F0EFEEECEBE9E8E6E5E3E1E0DEDCDAD8D6D4D2D0CECCCAC8C5C3C1BEBCBAB7B5B2B0ADABA8A5A3A000
:402D80009D9B989593908D8A888582807D7A7775726F6C6A6764625F5C5A5754524F4D4A484543413E3C3A373533312F2D2B29272523211F1E1C1A191716141311100F0EB3
:402DC0000D0C0B0A0908070606050504040303030303030303030303030404050506060708090A0B0C0D0E0F101113141617191A1C1E1F21232527292B2D2F313335373A7F
:402E00003C3E414345484A4D4F5254575A5C5F6264676A6C6F7275777A7D0000808386898C8F9295989B9EA1A4A7AAADB0B2B5B8BBBDC0C3C5C8CACDCFD1D4D6D8DADCDE3C
:402E4000E0E2E4E6E8E9EBEDEEEFF1F2F3F4F5F6F7F8F9FAFAFBFBFCFCFCFCFCFCFCFCFCFCFBFBFBFAF9F9F8F7F6F5F4F3F1F0EFEDECEAE9E7E5E3E1DFDDDBD9D7D5D3D078
:402E8000CECBC9C6C4C1BFBCB9B7B4B1AEABA8A5A29F9C999693908D8A8784817E7B7875726F6C696663605D5A5754514E4B484643403E3B393634312F2C2A2826242220F5
:402EC0001E1C1A1816151312100F0E0C0B0A0908070606050404040303030303030303030304040505060708090A0B0C0D0E101112141617191B1D1F21232527292B2E30E3
:402F00003235373A3C3F4244474A4D4F5255585B5E6164676A6D707376797C008083868A8D9194989B9EA2A5A8ACAFB2B5B8BBBEC1C4C7CACDCFD2D4D7D9DCDEE0E2E5E7BA
:402F4000E8EAECEEEFF1F2F4F5F6F7F8F9FAFAFBFBFCFCFCFCFCFCFCFCFCFBFBFAF9F8F8F6F5F4F3F2F0EFEDEBE9E7E6E3E1DFDDDBD8D6D3D1CECBC8C6C3C0BDBAB7B3B054
:402F8000ADAAA7A3A09D9996928F8C8885817E7A7773706D6966625F5C5855524F4C4845423F3C393734312E2C29272422201E1C1918161412100F0D0C0B0A09070706053F
:402FC000040403030303030303030304040505060708090A0B0D0E1011131517181A1D1F212326282B2D303235383B3E4144474A4D5053575A5D6164676B6E7275797C0059
:40300000011121314161536373000000080901010507070404000000F8B500BFF8BC08BC9E4670474D000000D5020000F8B500BFF8BC08BC9E467047290000005030000068
:403040000881FF1F28000000400000000000000000000000807F0000FF00000000366E01C05D0000180000000000E02EFFFFFFFFFFFFFFFFFFFFFF00000000000000000066
:403080000000000000000000000000000000000000000000000000000000000000000000000000000000000000000000000000000000000000000000000000000000000010
:4030C00000000000000000000000000000000000000000000000000000000000000000000000000000000000000000000000000000000000000000000000000000000000D0
:40310000000000000000000000000000000000000000000000000000000000000000000000000000000000000000000000000000000000000000000000000000000000008F
:40314000000000000000000000000000000000000000000000000000000000000000000000000000000000000000000000000000000000000000000000000000000000004F
:020000040003F7
:0200000480007A
:4000000001520040045A0040015B0040020301400205014004070140130901402B0A0140320B0140030D014001150140021701400E190140041B0140084001400F410140E4
:4000400009420140094301400244014004450140074601400B4701400B48014009490140114C0140114D014002500140035101402CFF87018F0197019F012F84E20CE604A3
:40008000E642EE40E810EA60EC01EE0281808E40940496909C119D849E80A582A710AB40AE01B310B404B501B780E601E810EA60EC010205070108040A010E0818081B02E3
:4000C0002A022F023004310232023401350136083E513F01580459045B045C245F018302860893019401950296049A059E02A608B004B202B302B401B501B608BE51BF0426
:40010000D804D904DC35DF01001001800340040809200C100D080E0910081708181019101A021B021D091F90212127182A803120370939043D02580159045A90600461820F
:400140006320680869046A016B0185018D018E049D109F10A702B702C02BC2E2C422CA08CCC4CE82D60FD80FE640EE4081108310E208EC30E006E820818086808C04940456
:4001800096109D809E80AB10AD02B011B504E820EA02EE0182109610E201EC30312038023C043E404008CC10CEE0D0103A083C083F404310800882408520940696409C080A
:4001C000A520CEE0D010E230E62086088F10940297409E089F10A404B404E6409D20A601AA01AF40B004B401B520EC80EE403020CC0832408740A420CC0833808F8096807C
:400200009780A420CC08E002322081018F409780A220A420AA40B620CC08E208E8082080248025042720810487209D20A621B220C8C0E06019201E0222209D20A621B04072
:40024000B440C6C0C8101F4034018C0297849D209F41A420A581A980AF04B301B520C601CC01E602EA08EE0401200340072109810C020F04832097049D209F41A402A581C5
:40028000B001B420C00FC20FEC0C003C0C3C000310AA11AA00000000000004000000000000003000000000000000C0000000000000000200FFFF0000000000000000000031
:4002C00000000000000000000000000000000000000000000000000000000000000000000000000000000000000000000000000000000000000000000000000000000000FE
:4003000000000000000000000000000000000000000000000000000000000000000000000000000000000000000000000000000000000000000000000000000000000000BD
:40034000000000000000000000000000000000000000000000000000000000000000000000000000000000000000000000000000000000000000000000000000000000007D
:40038000000000000000000000000000000000000000000000000000000000000000000000000000000000000000000000000000000000000000000000000000000000003D
:0200000490006A
:0400000000004005B7
:0200000490105A
:04000000BC90ACAF55
:0200000490303A
:02000000FBCE35
:0200000490402A
:4000000000000000000000000000000000000000000000000000000000000000000000000000000000000000000000000000000000000000000000000000000000000000C0
:400040000000000000000000000000000000000000000000000000000000000000000000000000000000000000000000000000000000000000000000000000000000000080
:400080000000000000000000000000000000000000000000000000000000000000000000000000000000000000000000000000000000000000000000000000000000000040
:4000C0000000000000000000000000000000000000000000000000000000000000000000000000000000000000000000000000000000000000000000000000000000000000
:0200000490501A
:0C00000000012E16006900012E2AFC37BA
:00000001FF